:100000000C9462000C948A000C948A000C948A0070
:100010000C948A000C948A000C948A000C948A0038
:100020000C948A000C948A000C948A000C948A0028
:100030000C948A000C948A000C948A000C948A0018
:100040000C9418060C948A000C94E6050C94C005D8
:100050000C948A000C948A000C948A000C948A00F8
:100060000C948A000C948A000000000023002600F3
:10007000290000000000250028002B0000000008D7
:10008000000201000003040700000000000000005F
:1000900000000000240027002A00010204081020AC
:1000A000408001020408102001020408102004040A
:1000B0000404040404040202020202020303030310
:1000C0000303620611241FBECFEFD8E0DEBFCDBF11
:1000D00011E0A0E0B1E0E6E2F4E102C005900D928B
:1000E000AC38B107D9F722E0ACE8B1E001C01D920D
:1000F000AB3CB207E1F710E0C2E6D0E004C02197C4
:10010000FE010E940B0AC136D107C9F70E9482077F
:100110000C94030A0C94000096E0899FD0011124EE
:10012000A45ABD4F90967C936E935F9791E0919601
:100130009C9391979091C802E091C902F091CA02F4
:10014000992339F0309751F0811108C080917802DD
:1001500004C0309719F05C968C910994089583300F
:1001600081F028F4813099F08230A1F00895873031
:10017000A9F08830B9F08430D1F4809180008F7D6F
:1001800003C0809180008F7780938000089584B5AC
:100190008F7702C084B58F7D84BD08958091B000B3
:1001A0008F7703C08091B0008F7D8093B000089559
:1001B0001F93CF93DF93282F30E0F901E458FF4FCE
:1001C0008491F901E656FF4FD491F901E255FF4FB2
:1001D000C491CC23C9F0162F81110E94AF00EC2FDF
:1001E000F0E0EE0FFF1FEE58FF4FA591B4918FB7CF
:1001F000F894111105C09C91ED2FE095E92302C000
:10020000EC91ED2BEC938FBFDF91CF911F9108956F
:10021000CF93DF9390E0FC01E656FF4F2491FC0161
:10022000E255FF4F8491882361F190E0880F991F78
:10023000FC01E057FF4FC591D491FC01EE58FF4FF0
:10024000A591B491611109C09FB7F8948881209558
:1002500082238883EC912E230BC0623061F49FB718
:10026000F8943881822F809583238883EC912E2BFC
:100270002C939FBF06C08FB7F894E8812E2B28835C
:100280008FBFDF91CF9108959CB5282F23709C7F5D
:10029000922B9CBD2DB582FB992790F9822F8E7FE2
:1002A000892B8DBD0895CF93DF93EC018A890E943D
:1002B00044018C89811103C08CB5806202C08CB569
:1002C0008F7D8CBD8CB5837F9B89892B8CBD60E035
:1002D00089890E94D8008F858EBD00000DB407FE6D
:1002E000FDCF8EB561E08989DF91CF910C94D80064
:1002F000CF92DF92EF92FF92CF93DF93EC01888948
:1003000081110FC060E08E810E94D80061E08E8173
:100310000E94D80060E08E810E94D8008BE891E0B6
:1003200036C0C12CD12C7601C394D701C6010E80F2
:1003300004C0880F991FAA1FBB1F0A94D2F780958B
:100340009F8589238F87CE010E945301D701C60163
:100350000E8004C0880F991FAA1FBB1F0A94D2F7F2
:100360002F85822B8F87CE010E9453010E8004C0FF
:10037000CC0CDD1CEE1CFF1C0A94D2F7C0948F85B8
:10038000C822CF86CE010E9453018BE990E00197ED
:10039000F1F7DF91CF91FF90EF90DF90CF9008952C
:1003A0008F929F92AF92BF92CF92DF92EF92FF9285
:1003B0000F931F93CF93DF93EC018889062F10E0F2
:1003C000811121C05E0187E0A80EB11CE12CF12C47
:1003D000650161E0F50181915F010E940801B801AA
:1003E0000E2C02C0759567950A94E2F76170F601CC
:1003F00080810E94D800FFEFEF1AFF0A84E0E81620
:10040000F10431F733C084E090E0812C912C540149
:1004100083949C0124503109A80102C05595479549
:100420002A95E2F72F8540FF0DC075016401082E63
:1004300004C0CC0CDD1CEE1CFF1C0A94D2F7C22AAF
:10044000CF860DC0B501A401082E04C0440F551F6E
:10045000661F771F0A94D2F7409542234F87019673
:1004600088309105B1F6CE010E945301CE01DF9193
:10047000CF911F910F91FF90EF90DF90CF90BF90A1
:10048000AF909F908F900C947801AF92BF92CF92D3
:10049000DF92EF92FF920F931F93CF93DF93EC01C4
:1004A000F62E642F8C810E94D8008D818F3F19F029
:1004B00060E00E94D8008D890F2D10E084FF2DC0D0
:1004C0005E0187E0A80EB11CE12CF12C650161E012
:1004D000F50181915F010E940801B8010E2C02C054
:1004E000759567950A94E2F76170F60180810E9424
:1004F000D800FFEFEF1AFF0A88E0E816F10431F7A1
:10050000CE01DF91CF911F910F91FF90EF90DF907F
:10051000CF90BF90AF900C947801B80184E07595AE
:1005200067958A95E1F7CE010E94D0016F2DCE012B
:10053000DF91CF911F910F91FF90EF90DF90CF90BF
:10054000BF90AF900C94D0011F93CF93DF93FC0129
:100550002089211106C040E0DF91CF911F910C94BA
:100560004502162FEC0181E090E0A0E0B0E00480AD
:1005700004C0880F991FAA1FBB1F0A94D2F7809549
:10058000978589238787CF010E945301612F70E0EF
:1005900084E0759567958A95E1F7CE010E94D001B8
:1005A000612FCE01DF91CF911F910C94D0010F9359
:1005B0001F93CF93DF93EC01623018F08D89886030
:1005C0008D8B698F1A8E8BE39DE00197F1F760E0C8
:1005D0008C810E94D80060E08E810E94D8008D81BD
:1005E0008F3F19F060E00E94D8006D8964FD1DC046
:1005F00063E0CE010E94D0010BE416E4C80101972C
:10060000F1F763E0CE010E94D001C8010197F1F734
:1006100063E0CE010E94D00183E592E00197F1F7FB
:1006200062E0CE010E94D00116C06062CE010E943D
:10063000A4028BE496E40197F1F76D896062CE0124
:100640000E94A40283E592E00197F1F76D89606250
:10065000CE010E94A4026D896062CE010E94A402B4
:1006600084E08E8B6CE0CE010E94A40261E0CE019A
:100670000E94A4028BE39FE10197F1F782E08F8B48
:1006800066E0CE01DF91CF911F910F910C94A402EF
:10069000CF93DF93CDB7DEB728970FB6F894DEBFC0
:1006A0000FBECDBF682F98E0E6E1F1E0DE011196C4
:1006B00001900D929A95E1F780915A02811102C042
:1006C0009FEF01C091E0FE013196E90FF11DE90FA6
:1006D000F11D9081690F606881E492E028960FB661
:1006E000F894DEBF0FBECDBFDF91CF910C94A40272
:1006F0001F93CF93DF93EC01162F8889811105C0DA
:1007000041E0CE010E94450220C081E090E0A0E0DF
:10071000B0E00C8004C0880F991FAA1FBB1F0A9469
:10072000D2F72F85822B8F87CE010E945301612F34
:1007300070E084E0759567958A95E1F7CE010E9497
:10074000D001612FCE010E94D00181E090E0DF91C5
:10075000CF911F910895CF93DF9370E0FB01E45890
:10076000FF4F8491FB01E656FF4FD491FB01E25508
:10077000FF4FC491CC2391F081110E94AF00EC2F68
:10078000F0E0EE0FFF1FE859FF4FA591B491EC91F7
:10079000ED2381E090E021F480E002C080E090E071
:1007A000DF91CF910895862F642F0C94D800862F67
:1007B000642F0C940801FC01538D448D252F30E0EB
:1007C000842F90E0821B930B541710F0CF9608955E
:1007D00001970895FC01918D828D981761F0828DAB
:1007E000DF01A80FB11D5D968C91928D9F5F9F7365
:1007F000928F90E008958FEF9FEF0895FC01918D07
:10080000828D981731F0828DE80FF11D858D90E073
:1008100008958FEF9FEF0895FC01918D228D892F10
:1008200090E0805C9F4F821B91098F7399270895F8
:10083000FC01848DDF01A80FB11DA35ABF4F2C917D
:10084000848D90E001968F739927848FA689B7894C
:100850002C93A089B1898C9180648C93938D848D25
:10086000981306C00288F389E02D80818F7D8083F4
:100870000895EF92FF920F931F93CF93DF93EC01B4
:1008800081E0888F9B8D8C8D981305C0E889F9894C
:10089000808185FD24C0F62E0B8D10E00F5F1F4F69
:1008A0000F731127E02E8C8DE8120CC00FB607FCD9
:1008B000FACFE889F989808185FFF5CFCE010E94C2
:1008C0001804F1CF8B8DFE01E80FF11DE35AFF4FA5
:1008D000F0820B8FEA89FB898081806207C0EE89F4
:1008E000FF896083E889F98980818064808381E061
:1008F00090E0DF91CF911F910F91FF90EF900895BD
:10090000CF93DF93EC01888D8823C9F0EA89FB89B6
:10091000808185FD05C0A889B9898C9186FD0FC0AD
:100920000FB607FCF5CF808185FFF2CFA889B98982
:100930008C9185FFEDCFCE010E941804E7CFDF91A7
:10094000CF91089583EA91E00E940C0421E0892B65
:1009500009F420E0822F089580E090E0892B29F0AF
:100960000E94A20481110C9400000895CF92DF929E
:10097000EF92FF920F931F93CF93DF936C017A0155
:100980008B01C0E0D0E0CE15DF0589F0D8016D9174
:100990008D01D601ED91FC910190F081E02DC60111
:1009A0000995892B11F47E0102C02196ECCFC70175
:1009B000DF91CF911F910F91FF90EF90DF90CF903B
:1009C0000895089580E090E008953FB7F8948091ED
:1009D000910190919201A0919301B091940126B55B
:1009E000A89B05C02F3F19F00196A11DB11D3FBF67
:1009F000BA2FA92F982F8827820F911DA11DB11DF5
:100A0000BC01CD0142E0660F771F881F991F4A95F0
:100A1000D1F708958F929F92AF92BF92CF92DF92BB
:100A2000EF92FF920E94E5044B015C0188EEC82E14
:100A300083E0D82EE12CF12C0E94E504DC01CB01EF
:100A400088199909AA09BB09883E9340A105B105F7
:100A500058F021E0C21AD108E108F10888EE880EAA
:100A600083E0981EA11CB11CC114D104E104F1045F
:100A700019F7FF90EF90DF90CF90BF90AF909F90CD
:100A80008F9008952FB7F89460918D0170918E0129
:100A900080918F01909190012FBF08950F931F9324
:100AA000CF93DF93C82FD62F86E0C89FF001112483
:100AB000E45AFD4F11A2878D90A181309105F1F08C
:100AC0001CF4892B49F043C082309105A9F10397AA
:100AD000F1F560E070E034C06623C9F161E070E0D8
:100AE0008C2F0E948C000E9442056093B402709388
:100AF000B5028093B6029093B70229C00E944205C6
:100B00000091B4021091B5022091B6023091B70263
:100B1000AB01BC01401B510B620B730B8091C602F1
:100B20009091C702A0E0B0E084179507A607B70729
:100B300018F462E070E004C0D11109C063E070E015
:100B40008C2FDF91CF911F910F910C948C00DF912E
:100B5000CF911F910F910895009769F0FC010190CA
:100B60000020E9F73197AF01481B590BBC0181E424
:100B700092E00C94B60480E090E008950E94060A8A
:100B80001F920F920FB60F9211242F933F934F9302
:100B90005F936F937F938F939F93AF93BF93EF93E5
:100BA000FF9383EA91E00E941804FF91EF91BF91B7
:100BB000AF919F918F917F916F915F914F913F91F5
:100BC0002F910F900FBE0F901F9018951F920F92AC
:100BD0000FB60F9211242F938F939F93EF93FF9350
:100BE000E091B301F091B4018081E091B901F091FD
:100BF000BA0182FD12C090818091BC018F5F8F731A
:100C00002091BD01821751F0E091BC01F0E0ED555B
:100C1000FE4F958F8093BC0101C08081FF91EF91C1
:100C20009F918F912F910F900FBE0F901F9018954D
:100C30001F920F920FB60F9211242F933F938F9311
:100C40009F93AF93BF9380918D0190918E01A0915E
:100C50008F01B091900130918C0123E0230F2D374B
:100C600020F40196A11DB11D05C026E8230F0296B0
:100C7000A11DB11D20938C0180938D0190938E0155
:100C8000A0938F01B0939001809191019091920176
:100C9000A0919301B09194010196A11DB11D809383
:100CA000910190939201A0939301B0939401BF910D
:100CB000AF919F918F913F912F910F900FBE0F9009
:100CC0001F901895CF931092A6011092A50188EE5F
:100CD00093E0A0E0B0E08093A7019093A801A093D7
:100CE000A901B093AA0188E291E09093A4018093B6
:100CF000A30185EC90E09093B0018093AF0184EC68
:100D000090E09093B2018093B10180EC90E09093D9
:100D1000B4018093B30181EC90E09093B60180938D
:100D2000B50182EC90E09093B8018093B70186EC16
:100D300090E09093BA018093B9011092BC01109297
:100D4000BD011092BE011092BF0110925E0210927E
:100D50006202109261021092630286E491E0909325
:100D60005D0280935C0280E090E0FC01E45AFD4F5C
:100D7000148E10A2178E11A206968C339105A9F736
:100D800080E591E09093BF028093BE028CE491E0F5
:100D90009093C1028093C00284E08093C20280934A
:100DA000C30286E091E09093BD028093BC028AE08A
:100DB00090E09093C5028093C40284EF91E09093F9
:100DC000C7028093C6021092CA021092C902109202
:100DD000B8021092B9021092BA021092BB0210929D
:100DE000C80210924402109243028AE391E0909369
:100DF00042028093410281E0809351028AE0809315
:100E0000520261E00E940801CFB7F894809140023D
:100E1000811127C0E8EBF0E08491E4EAF0E09491DE
:100E2000E82FF0E0EE0FFF1FE057FF4FA591B491C0
:100E3000EC91E92321F461E08AE00E94D80061E0AE
:100E40008AE00E9408018CB580618CBD8CB58064FD
:100E50008CBD61E08DE00E94080161E08BE00E94A2
:100E60000801809140028F5F80934002CFBFC4E0B1
:100E7000C093530284E00E944401109254028CB546
:100E8000837F8CBD91E0909355028CB58F7D8CBD96
:100E9000909345028FEF8093460283E08093470250
:100EA000109248021092490210924A0210924B028C
:100EB000C0934C0285E080934D0286E080934E0201
:100EC00087E080934F0261E081E00E9408018091F9
:100ED00046028F3F19F061E00E94080161E08091B5
:100EE00047020E9408011092560261E081E492E0FC
:100EF0000E94D70280915102811102C010925102CA
:100F0000CF910895789484B5826084BD84B5816062
:100F100084BD85B5826085BD85B5816085BD8091C4
:100F20006E00816080936E0010928100809181003C
:100F30008260809381008091810081608093810034
:100F4000809180008160809380008091B1008460F6
:100F50008093B1008091B00081608093B000809157
:100F60007A00846080937A0080917A008260809316
:100F70007A0080917A00816080937A0080917A0073
:100F8000806880937A001092C100E091B301F091E3
:100F9000B40182E08083E091AF01F091B001108252
:100FA000E091B101F091B2018FEC80831092BB010E
:100FB000E091B701F091B80186E08083E091B5013E
:100FC000F091B601808180618083E091B501F0915C
:100FD000B601808188608083E091B501F091B6010F
:100FE000808180688083E091B501F091B6018081B5
:100FF0008F7D808362E081E492E00E94D70284E5E5
:1010000091E00E94AC0580E00E944803412C512CE5
:1010100032014394CC24CA94DC2C81E08093C80232
:101020000E9442050091B8021091B9022091BA02C3
:101030003091BB02AB01BC01401B510B620B730B27
:101040008091C4029091C502A0E0B0E0841795079A
:10105000A607B70708F012C1C0E08091C202C81706
:1010600070F4E091BE02F091BF02EC0FF11D42E07E
:1010700060818CE592E00E94D703CF5FEECF912C88
:101080008091C302981608F069C0092D10E0E09124
:10109000C002F091C102E00FF11F41E060818CE5D8
:1010A00092E00E94D703E091C002F091C102E00FEC
:1010B000F11F40E060818CE592E00E94D303D301F0
:1010C000C201092C04C0880F991FAA1FBB1F0A94D4
:1010D000D2F75C017C01E094F094812C8091C202F3
:1010E000881608F5C82DD0E0E091BE02F091BF024D
:1010F000EC0FFD1F60818CE592E00E94AB0324960B
:10110000CC0FDD1FC45ADD4F892B29F488819981CA
:101110008A299B2904C0888199818E219F219983E6
:1011200088838394DBCFE091C002F091C102E00F8D
:10113000F11F41E060818CE592E00E94D303809131
:10114000C0029091C102FC01E00FF11F40E06081FC
:101150008CE592E00E94D703939492CFE8E7F2E007
:1011600083819481892B21F41082D282C1821582DD
:10117000369622E0E43BF20799F710E006E0809112
:10118000C202181708F052C0F12CC12FD0E0CC0FCA
:10119000DD1FCC59DD4F2091C302F21608F044C088
:1011A000688179810F2C02C0769567950A94E2F7E1
:1011B00061707727129F900111242F0D311DE0914E
:1011C000BC02F091BD02E20FF31FA081ECE5F2E05A
:1011D00080E0458D568D4217530711F461701AC097
:1011E0008F5F36968A30A9F7672BE1F0E8E7F2E0E7
:1011F00080E090E04081411110C0089FF001099FFC
:10120000F00D1124E45AFD4FA48F368F258F10A2C4
:10121000178E61E00E944E0505C0019636968A3011
:10122000910541F7F394B7CF1F5FA9CF80E090E01D
:10123000C0E0FC01E45AFD4F21A12111C1E0069656
:101240008C339105B1F70E9442056093B802709308
:10125000B9028093BA029093BB02CC2379F08091BB
:101260007D02882359F080917B0290917C02019746
:1012700029F4C0917802C11104C0C2C01092C80202
:10128000BFC0E091A301F091A4010190F081E02D95
:101290006C2F83EA91E009958091A201811106C02B
:1012A000C093A10181E08093A20127C08091A00199
:1012B000811106C0C0939F0181E08093A0011DC0F1
:1012C00080919E01811106C0C0939D0181E08093B1
:1012D0009E0113C080919C01811106C0C0939B01A7
:1012E00081E080939C0109C080919A01811105C021
:1012F000C093990181E080939A0180919701909128
:1013000098018530910509F06BC08091A10180930F
:10131000000180919F018093010180919D01809344
:10132000020180919B018093030180919901809338
:10133000040180E00E9448038091950190919601FC
:10134000EEE1F1E0A0E0B1E031912D91321301C066
:10135000019621E0E332F207B9F79093960180936A
:1013600095011092980110929701059719F585E65D
:1013700091E00E94AC050E940A051092960110921D
:101380009501C0E08C2F0E94480386E791E00E94FF
:10139000AC05CF5FC131B1F71092A2011092A0014C
:1013A00010929E0110929C0110929A0180E00E947E
:1013B000480326C0109296011092950188E791E0AB
:1013C0000E94AC050E940A05C0E08C2F0E944803D1
:1013D00086E791E00E94AC05CF5FC131B1F7DCCF69
:1013E00001969093980180939701E0914102F091CA
:1013F00042020190F081E02D6C2F81E492E009958A
:101400000E94AC040ACEF8940C94110A81E090E09A
:10141000F8940C94110AEE0FFF1F0590F491E02D43
:061420000994F894FFCFCF
:10142600303030303000313233413435364237389F
:1014360039432A3023440000400014005400353656
:1014460037313300000000003904B604DB038004A2
:101456000C04EA03FE03000000007803B604E2046D
:10146600E10400000000D703D303AB030504030225
:10147600090807065465636C6565207061737377A8
:101486006F72643E00436C61766520436F727265CD
:101496006374612121005F00436C61766520696E8B
:0C14A600636F72726563746121210000A5
:00000001FF
